:020000040000FA
:10000000850186018701880189018316031788010C
:1000100089010313870186138312061C0D28080823
:10002000A000870086181B28880820078700031C6B
:10003000861386171228061D252808082002031C8F
:10004000003C8700031C86174228861D0D280808DF
:100050000808A100A201FF302005031D322800304E
:1000600087003128FF302105031D39280030870023
:1000700038282008A207A10B392822088700031876
:1000800086174128061C42280808A100A201FF305B
:100090002005031D4E28220887004D28FF3021052A
:1000A000031D5628FF30870086175528A20A21080D
:0E00B000A002031C5628031D861787005E2839
:00000001FF
