:020000040000FA
:10000000850186018701880189018316031788010C
:1000100089010313870186138312061C0D28080823
:10002000A00087008618192806191F288619272876
:100030001228080820078700031886174328080895
:100040002002031C003C8700031C86174328FF3056
:100050002005031D2E28003087004328FF300805A7
:10006000031D35280030870043280808A100003010
:10007000A200A10B402822088700031886174328F6
:100080002008A207392886130808A1000030A20022
:10009000FF302005031D4E2822088700FF30210570
:1000A000031D5528FF3087008617A20A2108A002E9
:1000B0000318552803195D288617220887005F2832
:02400E00E423A9
:02401000FF3F70
:00000001FF
