:020000040000FA
:10000000850186018701880189018316031788010C
:1000100089010313870186138312061C0D28080823
:10002000A000870086181928061920288619292873
:1000300012280808A1002007870003188617452802
:100040000808A1002002031C003C8700031C86173F
:10005000452808080808A100A400A201FF302005D7
:10006000031D3528003087004528FF302105031D7A
:100070003C280030870045282008A207031886176F
:10008000A40B3C28220887004528061C4528861317
:10009000A301FF302105031D5128FF30870086177B
:1000A0005028FF302005031D5828230887005728B3
:1000B000A30A2108A002031858282108A007FF302E
:0E00C000A005031D8617A303230887006628EA
:02400E00E423A9
:02401000FF3F70
:00000001FF
