:020000040000FA
:10000000850186018701880189018316031788010C
:100010008901031388010911831209154E2001304B
:10002000E4000230E5000230E600672088090E3067
:10003000E1000930E2005C200000091C0E284E207F
:1000400088090630E1000430E2005C2088090330B2
:10005000E1002530E2005C20091C20284E208809A0
:100060000430E1001130E2005C2088094630E000F5
:1000700055200000091C2F284E2088094830E10037
:100080000130E2005C2088091B30E00055200000B0
:100090000000091C3D284E2088010D28091C4E280F
:1000A0007620091851287620080000000000000082
:1000B0000000E00B552808006208E3000000000083
:1000C00000000000E30B5E28E10B5C2808006608D6
:1000D000E7006508E8000000000000000000E80BF1
:1000E0006B28E70B6928E40B672808000330E4005D
:0C00F0002F30E5001930E6006720080002
:02400E00E423A9
:02401000FF3F70
:00000001FF
