:020000040000FA
:10000000850186018701880189018316031788010C
:1000100089010313F830880089008312091009153B
:100020000814312009110530A000891429208910F5
:100030002920A00B152808100815091431200811D3
:100040000530A0008814292088102920A00B222820
:100050000E280730E4003130E500F730E6004B2091
:100060000800D330E400D330E5006030E6004B20D8
:1000700008000000000000000000E00B3928080024
:100080006208E3000000000000000000E30B4228CB
:10009000E10B402808006608E7006508E80000005A
:1000A000000000000000E80B4F28E70B4D28E40B90
:0400B0004B280800D1
:02400E00E423A9
:02401000FF3F70
:00000001FF
