:020000040000FA
:10000000850186018701880189018316031788010C
:1000100089010313891083126620091C0D2875209D
:100020000918102875206620091C14287520091845
:10003000172875206620091C1B28752009181E2802
:10004000752089144C30E1000330E20084208910CF
:100050000530E4000D30E5000F30E6008F20091C6C
:100060002128091C3128752009183428752066209C
:10007000091C3828752009183B287520891405307B
:10008000E4002330E5000130E6008F2089100130C4
:10009000E4000A30E5001130E6008F20091C3E28FC
:1000A000091C502875200918532875208914EC3034
:1000B000E1000130E200842089109030E10002303C
:1000C000E20084200000091C56280C28891489307D
:1000D000E1000130E200842089102F30E10004307B
:1000E000E2008420091C662808000330E4002F3059
:1000F000E5001930E6008F20080000000000000035
:100100000000E00B7D2808006208E300000000000A
:1001100000000000E30B8628E10B84280800660835
:10012000E7006508E8000000000000000000E80BA0
:0C0130009328E70B9128E40B8F280800AF
:02400E00E423A9
:02401000FF3F70
:00000001FF
