:020000040000FA
:10000000850186018701880189018316031788010C
:10001000890103138910831289140130E40001302F
:10002000E5006630E6002F2089100130E40004303E
:10003000E5002330E6002F200C280000000000001F
:100040000000E00B1D2808006208E300000000002B
:1000500000000000E30B2628E10B242808006608B6
:10006000E7006508E8000000000000000000E80B61
:0C0070003328E70B3128E40B2F28080090
:02400E00E423A9
:02401000FF3F70
:00000001FF
