:020000040000FA
:10000000850186018701880189018316031788010C
:100010008901031387018613061283128618152897
:100020000619282886193F280E28861C15287820AE
:1000300086181828782006162330E000572006126C
:100040000130E4004130E5002B30E60069201B2838
:10005000061D2828782006192B287820061601303E
:10006000E4004530E5000130E60069200612033067
:10007000E4001530E5002B30E60069202E28861DAF
:100080003F28782086194228782006160130E4009F
:100090000130E5004330E600692006120A30E40032
:1000A0000430E5003C30E6006920000045280000EF
:1000B000000000000000E00B572808006208E30081
:1000C0000000000000000000E30B6028E10B5E2848
:1000D00008006608E7006508E8000000000000006E
:1000E0000000E80B6D28E70B6B28E40B692808007B
:1000F0004330E4001130E5000330E60069200800D9
:02400E00E423A9
:02401000FF3F70
:00000001FF
