:020000040000FA
:10000000850186018701880189018316031788010C
:1000100089010313870186130612831206185C28D0
:100020008618172806192E28861945280E28861C9A
:100030001728FB2086181A28FB2006160130E4003A
:100040002C30E5000330E600EC2006120230E4001C
:100050007B30E5000B30E600EC201D28061D2E2825
:10006000FB2006193128FB2006160230E4002F3051
:10007000E5000230E600EC2006120130E4002230F8
:10008000E5004D30E600EC203428861D4528FB2095
:1000900086194828FB2006160130E4004130E500AF
:1000A0000430E600EC2006120330E4000730E500DF
:1000B0007230E600EC204B28061C5C28FB2006185A
:1000C0005F28FB200808A0008700061C6528061C86
:1000D0006728FB2006186A28FB200808A100A40056
:1000E000722071288701D220870DD220870DD2205F
:1000F000870DD220870DD220870DD220870DD220E8
:10010000870DD220870DD220870CD220870CD220D9
:10011000870CD220870CD220870CD220870CD220CB
:10012000870CD2208701D2200130FF398700D220EE
:100130000330FF398700D2200730FF398700D220F3
:100140000F30FF398700D2201F30FF398700D220BF
:100150003F30FF398700D2207F30FF398700D2201F
:10016000FF30FF398700D2207F30FF398700D2204F
:100170003F30FF398700D2201F30FF398700D2205F
:100180000F30FF398700D2200730FF398700D22097
:100190000330FF398700D2200130FF398700D22099
:1001A000870108000530E4005630E5006330E600C2
:1001B000EC2008000000000000000000E00BDA283E
:1001C00008006208E3000000000000000000E30BEC
:1001D000E328E10BE12808006608E7006508E8006D
:1001E0000000000000000000E80BF028E70BEE28FC
:1001F000E40BEC2808004330E4001130E500033044
:06020000E600EC200800FE
:02400E00E423A9
:02401000FF3F70
:00000001FF
